{
  "contractName": "ItemManager",
  "abi": [
    {
      "anonymous": false,
      "inputs": [
        {
          "indexed": false,
          "internalType": "uint256",
          "name": "_itemIndex",
          "type": "uint256"
        },
        {
          "indexed": false,
          "internalType": "uint256",
          "name": "_step",
          "type": "uint256"
        },
        {
          "indexed": false,
          "internalType": "address",
          "name": "_address",
          "type": "address"
        }
      ],
      "name": "SupplyChainStep",
      "type": "event"
    },
    {
      "inputs": [],
      "name": "_owner",
      "outputs": [
        {
          "internalType": "address",
          "name": "",
          "type": "address"
        }
      ],
      "stateMutability": "view",
      "type": "function",
      "constant": true
    },
    {
      "inputs": [],
      "name": "isOwner",
      "outputs": [
        {
          "internalType": "bool",
          "name": "",
          "type": "bool"
        }
      ],
      "stateMutability": "view",
      "type": "function",
      "constant": true
    },
    {
      "inputs": [
        {
          "internalType": "uint256",
          "name": "",
          "type": "uint256"
        }
      ],
      "name": "items",
      "outputs": [
        {
          "internalType": "enum ItemManager.SupplyChainSteps",
          "name": "_step",
          "type": "uint8"
        },
        {
          "internalType": "string",
          "name": "_identifier",
          "type": "string"
        },
        {
          "internalType": "contract Item",
          "name": "_item",
          "type": "address"
        }
      ],
      "stateMutability": "view",
      "type": "function",
      "constant": true
    },
    {
      "inputs": [
        {
          "internalType": "string",
          "name": "_identifier",
          "type": "string"
        },
        {
          "internalType": "uint256",
          "name": "_priceInWei",
          "type": "uint256"
        }
      ],
      "name": "createItem",
      "outputs": [],
      "stateMutability": "nonpayable",
      "type": "function"
    },
    {
      "inputs": [
        {
          "internalType": "uint256",
          "name": "_index",
          "type": "uint256"
        }
      ],
      "name": "triggerPayment",
      "outputs": [],
      "stateMutability": "payable",
      "type": "function",
      "payable": true
    },
    {
      "inputs": [
        {
          "internalType": "uint256",
          "name": "_index",
          "type": "uint256"
        }
      ],
      "name": "triggerDelivery",
      "outputs": [],
      "stateMutability": "nonpayable",
      "type": "function"
    }
  ],
  "bytecode": "0x608060405234801561001057600080fd5b50336000806101000a81548173ffffffffffffffffffffffffffffffffffffffff021916908373ffffffffffffffffffffffffffffffffffffffff160217905550611b0e806100606000396000f3fe6080604052600436106200005c5760003560e01c8063800fb83f14620000615780638c55174214620000815780638f32d59b14620000af578063b2bdfa7b14620000df578063bfb231d2146200010f578063cd31831e1462000155575b600080fd5b6200007f600480360381019062000079919062000a71565b62000183565b005b3480156200008e57600080fd5b50620000ad6004803603810190620000a7919062000c05565b62000442565b005b348015620000bc57600080fd5b50620000c762000633565b604051620000d6919062000c88565b60405180910390f35b348015620000ec57600080fd5b50620000f76200068a565b60405162000106919062000cea565b60405180910390f35b3480156200011c57600080fd5b506200013b600480360381019062000135919062000a71565b620006ae565b6040516200014c9392919062000e85565b60405180910390f35b3480156200016257600080fd5b506200018160048036038101906200017b919062000a71565b62000795565b005b60006001600083815260200190815260200160002060020160009054906101000a900473ffffffffffffffffffffffffffffffffffffffff1690503373ffffffffffffffffffffffffffffffffffffffff168173ffffffffffffffffffffffffffffffffffffffff16146200022f576040517f08c379a0000000000000000000000000000000000000000000000000000000008152600401620002269062000f3f565b60405180910390fd5b348173ffffffffffffffffffffffffffffffffffffffff16633c8da5886040518163ffffffff1660e01b815260040160206040518083038186803b1580156200027757600080fd5b505afa1580156200028c573d6000803e3d6000fd5b505050506040513d601f19601f82011682018060405250810190620002b2919062000f78565b14620002f5576040517f08c379a0000000000000000000000000000000000000000000000000000000008152600401620002ec9062000ffa565b60405180910390fd5b600060028111156200030c576200030b62000d07565b5b6001600084815260200190815260200160002060000160009054906101000a900460ff16600281111562000345576200034462000d07565b5b1462000388576040517f08c379a00000000000000000000000000000000000000000000000000000000081526004016200037f9062001092565b60405180910390fd5b600180600084815260200190815260200160002060000160006101000a81548160ff02191690836002811115620003c457620003c362000d07565b5b02179055507fa4035636e99f06b7651a604c1019fa4e8779fe68ef27eeb74dff2de348f6199b826001600085815260200190815260200160002060000160009054906101000a900460ff16600281111562000424576200042362000d07565b5b836040516200043693929190620010c5565b60405180910390a15050565b6200044c62000633565b6200048e576040517f08c379a0000000000000000000000000000000000000000000000000000000008152600401620004859062001152565b60405180910390fd5b60003082600254604051620004a39062000964565b620004b193929190620011ad565b604051809103906000f080158015620004ce573d6000803e3d6000fd5b5090508060016000600254815260200190815260200160002060020160006101000a81548173ffffffffffffffffffffffffffffffffffffffff021916908373ffffffffffffffffffffffffffffffffffffffff160217905550600060016000600254815260200190815260200160002060000160006101000a81548160ff0219169083600281111562000567576200056662000d07565b5b02179055508260016000600254815260200190815260200160002060010190805190602001906200059a92919062000972565b507fa4035636e99f06b7651a604c1019fa4e8779fe68ef27eeb74dff2de348f6199b60025460016000600254815260200190815260200160002060000160009054906101000a900460ff166002811115620005fa57620005f962000d07565b5b836040516200060c93929190620010c5565b60405180910390a160026000815480929190620006299062001219565b9190505550505050565b60008060009054906101000a900473ffffffffffffffffffffffffffffffffffffffff1673ffffffffffffffffffffffffffffffffffffffff163373ffffffffffffffffffffffffffffffffffffffff1614905090565b60008054906101000a900473ffffffffffffffffffffffffffffffffffffffff1681565b60016020528060005260406000206000915090508060000160009054906101000a900460ff1690806001018054620006e69062001296565b80601f0160208091040260200160405190810160405280929190818152602001828054620007149062001296565b8015620007655780601f10620007395761010080835404028352916020019162000765565b820191906000526020600020905b8154815290600101906020018083116200074757829003601f168201915b5050505050908060020160009054906101000a900473ffffffffffffffffffffffffffffffffffffffff16905083565b6200079f62000633565b620007e1576040517f08c379a0000000000000000000000000000000000000000000000000000000008152600401620007d89062001152565b60405180910390fd5b60016002811115620007f857620007f762000d07565b5b6001600083815260200190815260200160002060000160009054906101000a900460ff16600281111562000831576200083062000d07565b5b1462000874576040517f08c379a00000000000000000000000000000000000000000000000000000000081526004016200086b9062001342565b60405180910390fd5b60026001600083815260200190815260200160002060000160006101000a81548160ff02191690836002811115620008b157620008b062000d07565b5b02179055507fa4035636e99f06b7651a604c1019fa4e8779fe68ef27eeb74dff2de348f6199b816001600084815260200190815260200160002060000160009054906101000a900460ff16600281111562000911576200091062000d07565b5b6001600085815260200190815260200160002060020160009054906101000a900473ffffffffffffffffffffffffffffffffffffffff166040516200095993929190620010c5565b60405180910390a150565b610774806200136583390190565b828054620009809062001296565b90600052602060002090601f016020900481019282620009a45760008555620009f0565b82601f10620009bf57805160ff1916838001178555620009f0565b82800160010185558215620009f0579182015b82811115620009ef578251825591602001919060010190620009d2565b5b509050620009ff919062000a03565b5090565b5b8082111562000a1e57600081600090555060010162000a04565b5090565b6000604051905090565b600080fd5b600080fd5b6000819050919050565b62000a4b8162000a36565b811462000a5757600080fd5b50565b60008135905062000a6b8162000a40565b92915050565b60006020828403121562000a8a5762000a8962000a2c565b5b600062000a9a8482850162000a5a565b91505092915050565b600080fd5b600080fd5b6000601f19601f8301169050919050565b7f4e487b7100000000000000000000000000000000000000000000000000000000600052604160045260246000fd5b62000af88262000aad565b810181811067ffffffffffffffff8211171562000b1a5762000b1962000abe565b5b80604052505050565b600062000b2f62000a22565b905062000b3d828262000aed565b919050565b600067ffffffffffffffff82111562000b605762000b5f62000abe565b5b62000b6b8262000aad565b9050602081019050919050565b82818337600083830152505050565b600062000b9e62000b988462000b42565b62000b23565b90508281526020810184848401111562000bbd5762000bbc62000aa8565b5b62000bca84828562000b78565b509392505050565b600082601f83011262000bea5762000be962000aa3565b5b813562000bfc84826020860162000b87565b91505092915050565b6000806040838503121562000c1f5762000c1e62000a2c565b5b600083013567ffffffffffffffff81111562000c405762000c3f62000a31565b5b62000c4e8582860162000bd2565b925050602062000c618582860162000a5a565b9150509250929050565b60008115159050919050565b62000c828162000c6b565b82525050565b600060208201905062000c9f600083018462000c77565b92915050565b600073ffffffffffffffffffffffffffffffffffffffff82169050919050565b600062000cd28262000ca5565b9050919050565b62000ce48162000cc5565b82525050565b600060208201905062000d01600083018462000cd9565b92915050565b7f4e487b7100000000000000000000000000000000000000000000000000000000600052602160045260246000fd5b6003811062000d4a5762000d4962000d07565b5b50565b600081905062000d5d8262000d36565b919050565b600062000d6f8262000d4d565b9050919050565b62000d818162000d62565b82525050565b600081519050919050565b600082825260208201905092915050565b60005b8381101562000dc357808201518184015260208101905062000da6565b8381111562000dd3576000848401525b50505050565b600062000de68262000d87565b62000df2818562000d92565b935062000e0481856020860162000da3565b62000e0f8162000aad565b840191505092915050565b6000819050919050565b600062000e4562000e3f62000e398462000ca5565b62000e1a565b62000ca5565b9050919050565b600062000e598262000e24565b9050919050565b600062000e6d8262000e4c565b9050919050565b62000e7f8162000e60565b82525050565b600060608201905062000e9c600083018662000d76565b818103602083015262000eb0818562000dd9565b905062000ec1604083018462000e74565b949350505050565b7f4f6e6c79206974656d732061726520616c6c6f77656420746f2075706461746560008201527f207468656d73656c766573000000000000000000000000000000000000000000602082015250565b600062000f27602b8362000d92565b915062000f348262000ec9565b604082019050919050565b6000602082019050818103600083015262000f5a8162000f18565b9050919050565b60008151905062000f728162000a40565b92915050565b60006020828403121562000f915762000f9062000a2c565b5b600062000fa18482850162000f61565b91505092915050565b7f4e6f742066756c6c792070616964207965740000000000000000000000000000600082015250565b600062000fe260128362000d92565b915062000fef8262000faa565b602082019050919050565b60006020820190508181036000830152620010158162000fd3565b9050919050565b7f4974656d206973206675727468657220696e2074686520737570706c7920636860008201527f61696e0000000000000000000000000000000000000000000000000000000000602082015250565b60006200107a60238362000d92565b915062001087826200101c565b604082019050919050565b60006020820190508181036000830152620010ad816200106b565b9050919050565b620010bf8162000a36565b82525050565b6000606082019050620010dc6000830186620010b4565b620010eb6020830185620010b4565b620010fa604083018462000cd9565b949350505050565b7f4f776e61626c653a2063616c6c6572206973206e6f7420746865206f776e6572600082015250565b60006200113a60208362000d92565b9150620011478262001102565b602082019050919050565b600060208201905081810360008301526200116d816200112b565b9050919050565b6000620011818262000e24565b9050919050565b6000620011958262001174565b9050919050565b620011a78162001188565b82525050565b6000606082019050620011c460008301866200119c565b620011d36020830185620010b4565b620011e26040830184620010b4565b949350505050565b7f4e487b7100000000000000000000000000000000000000000000000000000000600052601160045260246000fd5b6000620012268262000a36565b91507fffffffffffffffffffffffffffffffffffffffffffffffffffffffffffffffff8214156200125c576200125b620011ea565b5b600182019050919050565b7f4e487b7100000000000000000000000000000000000000000000000000000000600052602260045260246000fd5b60006002820490506001821680620012af57607f821691505b60208210811415620012c657620012c562001267565b5b50919050565b7f4974206973206675727468657220696e2074686520737570706c79206368616960008201527f6e00000000000000000000000000000000000000000000000000000000000000602082015250565b60006200132a60218362000d92565b91506200133782620012cc565b604082019050919050565b600060208201905081810360008301526200135d816200131b565b905091905056fe608060405234801561001057600080fd5b5060405161077438038061077483398181016040528101906100329190610134565b816000819055508060028190555082600360006101000a81548173ffffffffffffffffffffffffffffffffffffffff021916908373ffffffffffffffffffffffffffffffffffffffff160217905550505050610187565b600080fd5b600073ffffffffffffffffffffffffffffffffffffffff82169050919050565b60006100b98261008e565b9050919050565b60006100cb826100ae565b9050919050565b6100db816100c0565b81146100e657600080fd5b50565b6000815190506100f8816100d2565b92915050565b6000819050919050565b610111816100fe565b811461011c57600080fd5b50565b60008151905061012e81610108565b92915050565b60008060006060848603121561014d5761014c610089565b5b600061015b868287016100e9565b935050602061016c8682870161011f565b925050604061017d8682870161011f565b9150509250925092565b6105de806101966000396000f3fe6080604052600436106100385760003560e01c80632986c0e5146102505780633c8da5881461027b57806383d12eef146102a657610241565b36610241576000543414610081576040517f08c379a000000000000000000000000000000000000000000000000000000000815260040161007890610366565b60405180910390fd5b6000600154146100c6576040517f08c379a00000000000000000000000000000000000000000000000000000000081526004016100bd906103d2565b60405180910390fd5b34600160008282546100d8919061042b565b925050819055506000600360009054906101000a900473ffffffffffffffffffffffffffffffffffffffff1673ffffffffffffffffffffffffffffffffffffffff163460025460405160240161012e9190610490565b6040516020818303038152906040527f800fb83f000000000000000000000000000000000000000000000000000000007bffffffffffffffffffffffffffffffffffffffffffffffffffffffff19166020820180517bffffffffffffffffffffffffffffffffffffffffffffffffffffffff83818316178352505050506040516101b89190610525565b60006040518083038185875af1925050503d80600081146101f5576040519150601f19603f3d011682016040523d82523d6000602084013e6101fa565b606091505b505090508061023e576040517f08c379a000000000000000000000000000000000000000000000000000000000815260040161023590610588565b60405180910390fd5b50005b34801561024d57600080fd5b50005b34801561025c57600080fd5b506102656102d1565b6040516102729190610490565b60405180910390f35b34801561028757600080fd5b506102906102d7565b60405161029d9190610490565b60405180910390f35b3480156102b257600080fd5b506102bb6102dd565b6040516102c89190610490565b60405180910390f35b60025481565b60005481565b60015481565b600082825260208201905092915050565b7f576520646f6e277420737570706f7274207061727469616c207061796d656e7460008201527f7300000000000000000000000000000000000000000000000000000000000000602082015250565b60006103506021836102e3565b915061035b826102f4565b604082019050919050565b6000602082019050818103600083015261037f81610343565b9050919050565b7f4974656d20697320616c72656164792070616964210000000000000000000000600082015250565b60006103bc6015836102e3565b91506103c782610386565b602082019050919050565b600060208201905081810360008301526103eb816103af565b9050919050565b6000819050919050565b7f4e487b7100000000000000000000000000000000000000000000000000000000600052601160045260246000fd5b6000610436826103f2565b9150610441836103f2565b9250827fffffffffffffffffffffffffffffffffffffffffffffffffffffffffffffffff03821115610476576104756103fc565b5b828201905092915050565b61048a816103f2565b82525050565b60006020820190506104a56000830184610481565b92915050565b600081519050919050565b600081905092915050565b60005b838110156104df5780820151818401526020810190506104c4565b838111156104ee576000848401525b50505050565b60006104ff826104ab565b61050981856104b6565b93506105198185602086016104c1565b80840191505092915050565b600061053182846104f4565b915081905092915050565b7f44656c697665727920646964206e6f7420776f726b0000000000000000000000600082015250565b60006105726015836102e3565b915061057d8261053c565b602082019050919050565b600060208201905081810360008301526105a181610565565b905091905056fea2646970667358221220c36f99ca99573a032a705fa8f3cbdc5c0ff30322366167109c69847608c8e7bc64736f6c63430008090033a2646970667358221220c9627a23ecdd412781e0fdcd041fb244c5691ca13dd8f249e237caf0482643b464736f6c63430008090033",
  "immutableReferences": {},
  "source": "pragma solidity ^0.8.0;\n\nimport \"./Ownable.sol\";\nimport \"./Item.sol\";\n\ncontract ItemManager is Ownable{\n    \n    enum SupplyChainSteps {Created, Paid, Delivered}\n    \n    struct S_Item {\n        ItemManager.SupplyChainSteps _step;\n        string _identifier;\n        Item _item;\n        // uint _priceInWei;\n    }\n    \n    mapping (uint =>S_Item) public items;\n    uint index;\n    \n    event SupplyChainStep (uint _itemIndex, uint _step, address _address);\n    \n    function createItem (string memory _identifier, uint _priceInWei) public onlyOwner {\n        Item item = new Item (this, _priceInWei, index);\n        items[index]._item = item;\n        //items[index]._priceInWei = _priceInWei;\n        items[index]._step = SupplyChainSteps.Created;\n        items[index]._identifier = _identifier;\n        emit SupplyChainStep (index, uint(items[index]._step), address(item));\n        index ++;\n    }\n    \n    function triggerPayment (uint _index) public payable{\n        Item item = items[_index]._item;\n        require( address(item)== msg.sender, \"Only items are allowed to update themselves\");\n        require(item.priceInWei() == msg.value, \"Not fully paid yet\");\n        require(items[_index]._step == SupplyChainSteps.Created, \"Item is further in the supply chain\");\n        items[_index]._step = SupplyChainSteps.Paid;\n        emit SupplyChainStep(_index, uint(items[_index]._step), address(item));\n    }\n    \n    function triggerDelivery( uint _index) public onlyOwner {\n        require( items[_index]._step == SupplyChainSteps.Paid, \"It is further in the supply chain\");\n        items[_index]._step = SupplyChainSteps.Delivered;\n        emit SupplyChainStep(_index, uint(items[_index]._step), address(items[_index]._item));\n    }\n}",
  "sourcePath": "E:\\Blockchain\\DApp\\Workspace\\contracts\\ItemManager.sol",
  "compiler": {
    "name": "solc",
    "version": "0.8.9+commit.e5eed63a.Emscripten.clang"
  },
  "schemaVersion": "3.4.3",
  "updatedAt": "2021-10-05T08:19:41.123Z",
  "networkType": "ethereum",
  "devdoc": {
    "kind": "dev",
    "methods": {},
    "version": 1
  },
  "userdoc": {
    "kind": "user",
    "methods": {},
    "version": 1
  }
}